:100000000C942C020C9454020C9454020C94540240
:100010000C9454020C9454020C9454020C94540208
:100020000C9454020C9454020C94BA0A0C94290BAC
:100030000C9454020C9454020C9454020C945402E8
:100040000C9454020C9454020C9454020C945402D8
:100050000C9454020C9454020C9454020C94700AA4
:100060000C9454020C945B0D0C9454020C945402A6
:100070000C9454020C9454020C9454020C945402A8
:100080000C9454020C9454020C9454020C94540298
:100090000C9455090C9454020C9454020C94540280
:1000A0000C9454020C9454020C9454020A55736537
:1000B00020746865736520636F6D6D616E64733A5B
:1000C000202768656C7027202D2074686973207460
:1000D0006578740A2772656C6179202327202D20AA
:1000E0007365742072656C61792023207365747563
:1000F0007020666F722028312D34290A27736574A9
:10010000203C444D58206368616E6E656C20233E30
:10011000205B3C64656C617920696E203130733EF0
:100120005D27202D206173736F6369617465207290
:10013000656C61792077697468206368616E6E65AB
:100140006C0A2764656C203C444D58206368616EDE
:100150006E656C20233E27202D2064652D6173730E
:100160006F63696174652072656C61792077697469
:1001700068206368616E6E656C200A277072696E14
:100180007427202D207072696E74206173736F6301
:10019000696174696F6E207461626C650A277361AE
:1001A000766527202D2073617665206375727265F0
:1001B0006E7420636F6E66696720696E204E5652BA
:1001C000414D0A276C6F616427202D206C6F61649C
:1001D00020636F6E6669672066726F6D204E56529F
:1001E000414D0A276B696C6C27202D207465737450
:1001F000207761746368646F670A27636C65617256
:1002000027202D20636C656172206173736F6369B1
:100210006174696F6E207461626C6520696E205232
:10022000414D0A0043757272656E742072656C618F
:10023000793A200044656C6179206D757374206291
:100240006520696E20302E2E3134203130732072BB
:10025000616E676500444D58204368616E6E656C41
:10026000206D75737420626520696E20312E2E35E5
:1002700031322072616E67650075736167653A207F
:10028000276164642023444D586368616E6E656C19
:10029000205B64656C61795F696E5F3130736563A3
:1002A0005D004E6F2043757272656E742072656CCE
:1002B000617920646566696E65642C2075736520BC
:1002C0002772656C61792720636F6D6D616E6400C4
:1002D00075736167653A202764656C2023444D5827
:1002E0006368616E6E656C00444D58204368616EB2
:1002F0006E656C206D75737420626520696E2031A7
:100300002E2E3531322072616E6765004E6F2043AC
:10031000757272656E742072656C617920646566B1
:10032000696E65642C20757365202772656C617930
:100330002720636F6D6D616E6400080B000202027E
:100340000000090400000102020000052400100161
:100350000524010101042402060524060001070505
:10036000810310004009040100020A000000070593
:100370000202400000070583024000000403090454
:1003800012010002EF020140412336800001010208
:10039000030141726475696E6F204C4C43004172D9
:1003A0006475696E6F204C656F6E6172646F003E9C
:1003B0003E2000496E76616C696420636F6D6D61EB
:1003C0006E6400070605040100080A0B0C0D090005
:1003D000000000240027002A002D0030000000004B
:1003E00000250028002B002E003100000000002313
:1003F00000260029002C002F000404040404030438
:1004000005020202020403020202020606060606B2
:1004100006040402020204040408020110408040A1
:10042000102040804080080204018040201002011A
:10043000108010204040200000000200090F000042
:10044000030401000C000000000000000000000098
:10045000000000000000C20F11241FBECFEFDAE041
:10046000DEBFCDBF12E0A0E0B1E0E4E7FEE202C0F3
:1004700005900D92A632B107D9F725E0A6E2B2E0C9
:1004800001C01D92A038B207E1F712E0CCE2D2E041
:1004900004C02197FE010E942217CB32D107C9F771
:1004A0000E94E90F0C9438170C940000FC01809115
:1004B0001C03882311F13FB7F89482E08093E90090
:1004C0002091F200822F90E01816190614F481E0B2
:1004D00090E0882339F0289844E640931B0340912C
:1004E000F1004083222339F02091F200211103C052
:1004F0002BE62093E8003FBF08958FEF9FEF08950C
:100500002FB7F89483E08093E9009091E800892F59
:10051000807295FF04C09091F20080E4891B2FBF88
:1005200008952091D102260F3327331F2132310540
:10053000ECF42091F502FC0190E080E0243069F0B9
:1005400082E00895A091D1022191AC014F545D4FFA
:10055000A40FB52FB11D2C930196861798F38091A7
:10056000D102680F6093D10280E0089581E0089580
:1005700008958FEF9FEF08958FEF9FEF089580917B
:10058000AA0290E09195819591090895CF93DF9308
:10059000CB01EA01642F0E949102CE01DF91CF913D
:1005A0000895CF93DF931F92CDB7DEB7698361E0E3
:1005B000CE0101960E94910281E090E00F90DF91C0
:1005C000CF9108958091A20281110DC082E08093A5
:1005D0009E0284E080939F021092A1021092A002DA
:1005E00081E08093A2028EE992E0089581508F30DD
:1005F00008F047C0E82FF0E0E050FD4F0C942217C0
:100600001D0321030F031503190341034103410394
:1006100024032A032E033203380341033C03809151
:1006200080008F77809380000895809180008F7D77
:10063000F9CF80918000877FF5CF84B58F7784BD17
:10064000089584B58F7DFBCF809190008F77809344
:1006500090000895809190008F7DF9CF8091900057
:10066000877FF5CF8091C0008F778093C000089579
:100670008091C0008F7DF9CF8091C200877F8093E9
:10068000C2000895CF93DF93282F30E0F901E95C91
:10069000FB4F8491F901E85EFB4FD491F901E750DB
:1006A000FC4FC491CC23A1F081110E94F602EC2FE3
:1006B000F0E0EE0FFF1FE551FC4FA591B491EC91D6
:1006C000ED2381E090E009F480E0DF91CF9108957F
:1006D00080E090E0FACF1F93CF93DF93282F30E094
:1006E000F901E95CFB4F8491F901E85EFB4FD4917D
:1006F000F901E750FC4FC491CC23A9F0162F8111CA
:100700000E94F602EC2FF0E0EE0FFF1FE352FC4FC9
:10071000A591B4918FB7F894EC91111108C0D095C0
:10072000DE23DC938FBFDF91CF911F910895DE2BE5
:10073000F8CFCF93DF9390E0FC01E85EFB4F24916C
:1007400087509C4FFC0184918823D1F090E0880F62
:10075000991FFC01E153FC4FA591B491FC01E352B8
:10076000FC4FC591D49161110EC09FB7F8948C9144
:10077000E22FE0958E238C932881E223E8839FBFAC
:10078000DF91CF9108958FB7F894EC91E22BEC9321
:100790008FBFF6CF8251E82FF0E0ED53FC4FE4918C
:1007A00090917B008E2F880F880F80729F7D892B00
:1007B00080937B00E770E064E0937C0080917A0096
:1007C000806480937A0080917A0086FDFCCF8091CE
:1007D00078009091790008953FB7F89480919A023B
:1007E00090919B02A0919C02B0919D0226B5A89B7E
:1007F00005C02F3F19F00196A11DB11D3FBFBA2FB3
:10080000A92F982F8827BC01CD01620F711D811D72
:10081000911D42E0660F771F881F991F4A95D1F7F7
:1008200008958F929F92AF92BF92CF92DF92EF92F4
:10083000FF924B015C010E94EC036B017C010E9462
:10084000EC036C197D098E099F09683E7340810590
:100850009105A8F321E0821A9108A108B10888EE59
:10086000C80E83E0D81EE11CF11C81149104A10480
:10087000B10429F7FF90EF90DF90CF90BF90AF9039
:100880009F908F90089540913702509138022091A7
:1008900035023091360242175307B4F49091E800C4
:1008A0009570E1F39091E80092FD19C08093F100FA
:1008B000809137029091380201968F739927892B86
:1008C00019F48EEF8093E8008091370290913802FE
:1008D0000196909338028093370281E0089580E07A
:1008E0000895DF92EF92FF920F931F93CF93DF93C0
:1008F000D82E8A01EB017B01E40EF51ECE15DF0533
:1009000059F0D7FE12C0FE0184910E944304219643
:100910008111F4CF0FEF1FEFC801DF91CF911F912D
:100920000F91FF90EF90DF9008958881EECF0F93A5
:100930001F93CF93DF931F92CDB7DEB782E08983F9
:1009400042E450E06AE373E080E80E9471040E9490
:10095000E202DC0112960D911C910115110589F03E
:10096000D801ED91FC910280F381E02DBE016F5F13
:100970007F4FC801099597FD04C0F80100851185D6
:10098000ECCF89810F90DF91CF911F910F91089546
:10099000615030F02091F100FC0120830196F8CFE6
:1009A000289884E680931B030895DC01ED91FC9167
:1009B0000190F081E02D099490E080E008958F92FD
:1009C0009F92AF92BF92CF92DF92EF92FF920F93DE
:1009D0001F93CF93DF936C017B018A0180910B0100
:1009E000882309F45CC080911C03882309F457C054
:1009F00080913B0280FF05C08091E000826080937F
:100A0000E000E801B12C8AEFA82E93E0892E2AE3BA
:100A1000922E209711F4BB20D9F10E9480028111FF
:100A20000AC0AA94AA20D9F161E070E080E090E0C9
:100A30000E941104EECF8C171D0611F00CF08C2FC4
:100A40009FB7F8948092E9002091E80025FD02C04C
:100A50009FBFDFCF282F30E0C21BD30BF70181509F
:100A600020F041914093F100FACFE20EF31EBB203B
:100A700021F09092E800B12CEBCF8091E80085FD49
:100A8000E7CF9092E800BB24B394209709F3F3CF0B
:100A90005D9884E680933A02101611063CF081E0DE
:100AA00090E0F6019383828310E000E0C801DF91BB
:100AB000CF911F910F91FF90EF90DF90CF90BF905B
:100AC000AF909F908F900895CF93DF931F92CDB7F3
:100AD000DEB76983DC01ED91FC910280F381E02DAA
:100AE00041E050E0BE016F5F7F4F09950F90DF91AD
:100AF000CF9108950F931F93CF93DF938C01D0E094
:100B0000C0E0F801EC0FFD1F6491662341F08EE117
:100B100095E00E946405892B11F02196F2CFCE0159
:100B2000DF91CF911F910F91089583E08093E900A9
:100B30008091F200882319F08AE38093E8000895F9
:100B40000E94800290E00895CF93DF931F92CDB76B
:100B5000DEB7FC018485958597FD08C02FEF3FEF38
:100B6000358724870F90DF91CF910895CE010196AC
:100B70000E945602019719F4898190E0F3CF8FEF1C
:100B80009FEFF0CF0F931F93CF93DF931F92CDB7BB
:100B9000DEB78C01FC018485958597FF0BC0CE01E3
:100BA00001960E945602019771F4898190E0F80144
:100BB00095878487F801848595850F90DF91CF9183
:100BC0001F910F9108958FEF9FEFF1CFFC01848566
:100BD000958597FD0BC09FB7F89482E08093E9005C
:100BE0008091F2009FBF90E0019608959FB7F8941E
:100BF00082E08093E9008091F2009FBF90E0089529
:100C00000F931F93CF93DF930DE113E0D0E0C0E08B
:100C1000CE010E94EA16F80181938F012196C1301E
:100C2000F2E0DF07A9F78DE193E0DF91CF911F910B
:100C30000F910895FF920F931F93CF93DF930DE1D0
:100C400013E0D0E0C0E0F801F1908F01CE010E94E6
:100C5000EA16F81621F06F2DCE010E94F2162196A9
:100C6000C130F2E0DF0779F78DE193E0DF91CF91BA
:100C70001F910F91FF9008951F93CF93DF9385ED00
:100C80008093BC008091AD029091AE02A091AF0222
:100C9000B091B0020796A11DB11D23E0B695A795AE
:100CA000979587952A95D1F72091BC0024FD03C024
:100CB0001092F50252C04091AD025091AE02609187
:100CC000AF027091B002452B462B472B69F300977A
:100CD000A105B10541F025E32A95F1F70000019740
:100CE000A109B109E1CF8091AC02C1E0C093AB0290
:100CF000882399F1D091B8001091BA008091BC007E
:100D00008A7B8093BC0060E082E00E946B0360E01D
:100D100083E00E946B031092F502C093F7021092D9
:100D2000F60261E082E00E946B0361E083E00E94D2
:100D30006B038091B9008E7F8093B9008091B900D8
:100D40008D7F8093B90088E48093B80085E4809318
:100D5000BC001093BA00D093B800DF91CF911F91DF
:100D60000895EDE1F3E080E092E0DF019C011D9247
:100D700021503040E1F781E090E00895FB010190BF
:100D80000020E9F73197AF01461B570BDC01ED91CD
:100D9000FC910280F381E02D099469E371E08EE11A
:100DA00095E00C94BE06CF93DF930E947A05EC0188
:100DB0000E94CD068C0F9D1FDF91CF9108958CEA84
:100DC00090E00E94D30681E090E00895CF92DF92F8
:100DD000EF92FF921F93CF93DF936C017B011091F1
:100DE000280282EA92E0112391F089E792E022E062
:100DF000C216D10464F0FB01828193810E9498168F
:100E0000EC0101978115924070F085E592E00E9417
:100E1000D30690E080E0DF91CF911F91FF90EF909B
:100E2000DF90CF90089522E0C216D10459F0F70167
:100E3000848195810E9498169C0140972CF084E350
:100E400092E0E5CF2FE030E0C35EDC4F98819F70E9
:100E5000612F6150770BAB0161E070E001C0660F5C
:100E60004A95EAF7962B84E0220F331F8A95E1F723
:100E7000922B988381E090E0CECFCF93DF93C09107
:100E80002802C11109C08CE093E00E94D30690E0D3
:100E900080E0DF91CF91089502971CF480ED92E0FD
:100EA000F4CFFB01828193810E9498169C0121500E
:100EB00031092115324018F088EE92E0E6CFFC01AE
:100EC000E35EFC4FC150DD0B21E030E001C0220F9A
:100ED000CA95EAF7209580812823208381E090E05D
:100EE000D8CF8F929F92AF92BF92EF92FF920F93C3
:100EF0001F93CF93DF93CDB7DEB7A1970FB6F894CA
:100F0000DEBF0FBECDBF7C01FA01CB0119A222309A
:100F100008F42AE08E010F5D1F4F822E912CB12C18
:100F2000A12CBF01A50194010E940017F901CA017B
:100F30006A300CF5605DD8016E938D01232B242B54
:100F4000252B79F790E080E0109721F0BD01C701D3
:100F50000E94BE06A1960FB6F894DEBF0FBECDBFAD
:100F6000DF91CF911F910F91FF90EF90BF90AF90C5
:100F70009F908F900895695CDECFCF92DF92EF92C1
:100F8000FF92CF93DF93AB01BC0177FF1DC06A01D5
:100F90007C016DE28EE195E00E94D504EC014427CE
:100FA0005527BA014C195D096E097F092AE08EE1C7
:100FB00095E00E9471078C0F9D1FDF91CF91FF90EC
:100FC000EF90DF90CF9008952AE08EE195E0DF91D9
:100FD000CF91FF90EF90DF90CF900C9471078F929C
:100FE0009F92AF92BF92CF92DF92EF92FF920F93B8
:100FF0001F93CF93DF937C018B016C0182E0C80EBD
:10100000D11C4701E5E08E0E911CD0E0C0E0F60156
:1010100041916F0150E070E060E02AE0C8010E9459
:1010200071075C016EE2C8010E94D5048A0D9B1D08
:10103000C80FD91FC814D90451F7F701458150E0F2
:1010400070E060E02AE0C8010E9471078C0F9D1FCC
:10105000DF91CF911F910F91FF90EF90DF90CF9094
:10106000BF90AF909F908F900895CF92DF92EF92B4
:10107000FF92C12CD12C7601C39468EE73E080E01E
:1010800090E00E9411042AE0B701A6018EE195E0EC
:101090000E9471070E94CD068FEFC81AD80AE80A8D
:1010A000F80A84E1C816D104E104F10431F781E0C3
:1010B00090E0FF90EF90DF90CF900895029739F481
:1010C000FB01828193810E9498168093280284E21A
:1010D00092E00E947A054091280250E070E060E0C2
:1010E0002AE08EE195E00E9471070E94CD0681E022
:1010F00090E00895CF93DF93BC018EE195E00E94CC
:10110000BE06EC010E94CD068C0F9D1FDF91CF9192
:1011100008958CE391E00E947A080E941A0681E00B
:1011200090E008958FE491E00E947A080E94000602
:1011300081E090E008954F925F926F927F92AF921C
:10114000BF92CF92DF92EF92FF920F931F93CF93B4
:10115000DF93C12CD12C7601C39401E010E063E64B
:1011600071E08EE195E00E94BE06C701B6010E94C3
:10117000BD070E94CD06C6010197580102C0AA0C06
:10118000BB1C8A95E2F7CDE1D3E0412C512C320112
:101190004394898190E08A219B21892BD9F0C30156
:1011A000B2010E94BD0768E671E08EE195E00E9401
:1011B000BE06698170E084E0759567958A95E1F7D0
:1011C000072E000C880B990B0E94BD078AE691E060
:1011D0000E947A0821968FEF481A580A680A780AFE
:1011E00081E0481682E058066104710491F68FEFA1
:1011F000C81AD80AE80AF80A85E0C816D104E1043A
:10120000F10409F0ACCF81E090E0DF91CF911F9124
:101210000F91FF90EF90DF90CF90BF90AF907F90B5
:101220006F905F904F900895CF92DF92EF92FF9270
:101230000F931F93CF93DF936C018B0186E090E0B7
:101240000E947315EC019093420280934102F601D3
:1012500001900020E9F7CF018C199D090E947315B8
:101260007C01B6010E943117F60101900020E9F7D8
:101270003197EC19FD09EE0DFF1D1082F982E8820D
:101280001B830A8380913D0290913E029D838C8353
:10129000D0933E02C0933D02DF91CF911F910F91F9
:1012A000FF90EF90DF90CF9008951F920F920FB6AE
:1012B0000F9211242F933F934F935F936F937F93DC
:1012C0008F939F93AF93BF93EF93FF938091B90058
:1012D000887F803609F44AC0F0F5883209F4A5C049
:1012E00018F5803109F499C0B8F4882309F4F5C0E1
:1012F000883009F492C0FF91EF91BF91AF919F9117
:101300008F917F916F915F914F913F912F910F90AE
:101310000FBE0F901F901895883109F486C0803257
:1013200051F78093F40214C0803409F49BC040F458
:101330008033B9F38833F9F68093F40285ECAEC0BC
:10134000803509F483C0883509F494C0883499F64F
:101350000E943C06D0CF883909F48AC038F5883716
:1013600029F050F4883611F0803729F683E0809315
:10137000F5021092F30255C0883809F479C080391B
:1013800019F0803809F0B7CF8091F302803208F06D
:101390006FC0E091F30281E08E0F8093F3028091A1
:1013A000BB00F0E0ED52FD4F80833BC0803B39F045
:1013B000D0F4803A09F477C0883A09F09CCF84E0F1
:1013C0008093F5021092D2021092D102F0E0E0E098
:1013D00009958091D10281110FC081E08093D102E3
:1013E0001092B10209C0803C09F4A8CF883C09F4EE
:1013F000A5CF883B09F07FCFE091D20281E08E0F2C
:101400008093D202F0E0EF54FD4F80818093BB00C7
:101410009091D2028091D10229C080911A038093C9
:10142000BB0085EC8093BC0066CF9091190380913E
:101430001803981758F5E091190381E08E0F8093F7
:101440001903F0E0E850FD4F8081E9CFE0911903E6
:1014500081E08E0F809319038091BB00F0E0E8508B
:10146000FD4F808390911903809118039817C8F25B
:1014700085E8D8CFE091190381E08E0F809319039E
:101480008091BB00F0E0E850FD4F80838091F7022F
:1014900081115ECF81E08093F60284EA8093BC00E4
:1014A0001092F50228CF85EC8093BC001092F502D3
:1014B0008091F302803230F4E091F302F0E0ED52DB
:1014C000FD4F10826091F30270E083ED92E0F0E056
:1014D000E0E009951092F3020ECF1092F40238CF9B
:1014E0001F920F920FB60F9211242F933F938F9359
:1014F0009F93AF93BF938091960290919702A09192
:101500009802B09199023091950223E0230F2D3774
:1015100058F50196A11DB11D209395028093960266
:1015200090939702A0939802B093990280919A02A7
:1015300090919B02A0919C02B0919D020196A11DE9
:10154000B11D80939A0290939B02A0939C02B0934A
:101550009D02BF91AF919F918F913F912F910F90DD
:101560000FBE0F901F90189526E8230F0296A11D1D
:10157000B11DD2CF1F920F920FB60F9211248F93ED
:101580009F938091E1009091E100937F9093E1001F
:1015900083FF0FC01092E90091E09093EB0010924E
:1015A000EC0092E39093ED0010921C0398E090936E
:1015B000F00082FF22C093E09093E9009091F20046
:1015C000992319F09AE39093E80090913A029923B5
:1015D00041F090913A02915090933A02911101C0DA
:1015E0005D9A90911B03992341F090911B039150B8
:1015F00090931B03911101C0289A84FF18C0809119
:10160000E2008E7E81608093E2008091E1008F7E17
:101610008093E10080913B028E7E806180933B024B
:101620009F918F910F900FBE0F901F90189580FF84
:10163000F7CF8091E2008E7E80618093E2008091FE
:10164000E1008E7E8093E10080913B028E7E81607E
:10165000E5CF1F920F920FB60F921124CF92DF9217
:10166000EF92FF920F931F932F933F934F935F93AC
:101670006F937F938F939F93AF93BF93EF93FF935A
:10168000CF93DF93CDB7DEB76C97DEBFCDBF10929F
:10169000E9008091E80083FF25C068E0CE0145960F
:1016A0000E94C80482EF8093E8008D8987FF39C0CB
:1016B0009091E80090FFFCCF982F907609F034C10C
:1016C0009E894F89588D2F89F88C911131C08038AF
:1016D00061F580913C028093F1001092F1008EEF51
:1016E0008093E8006C960FB6F894DEBF0FBECDBFB6
:1016F000DF91CF91FF91EF91BF91AF919F918F912A
:101700007F916F915F914F913F912F911F910F9119
:10171000FF90EF90DF90CF900F900FBE0F901F9033
:1017200018959EEF9093E800C7CF1092F100D5CFA7
:10173000913059F48111D3CF4130510581F6809118
:101740003C028D7F80933C02CACF933049F48111D3
:10175000C6CF4130510519F680913C028260F2CF2C
:10176000953041F48091E80080FFFCCF2068209301
:10177000E300B5CF963009F0A9C00B8D1C8D22E097
:101780001092E9001092380210923702F2122EC025
:1017900010923602109235020E9497041F8299E03F
:1017A0009983FA8291E09E8390EA98879AEF9987CD
:1017B0002091370230913802275F3F4F3C832B83C3
:1017C0008D831092E9001092380210923702109324
:1017D00036020093350249E050E0BE016F5F7F4F53
:1017E00080E00E9471040E94970479CF1093360222
:1017F000009335020E94E202DC0112960D911C91C9
:101800000115110509F451C1D801ED91FC91048035
:10181000F581E02DBE016B5E7F4FC80109950097F1
:1018200009F03EC1F80100851185EACFF3E0FF120F
:101830000EC08F89882309F440C0823061F440E8EB
:1018400060E18EE993E00E948F0F811148CF81E221
:101850008093EB0047CF813029F440E86BE082E9C8
:1018600093E0F1CF833099F70E94E202DC011296F7
:10187000ED90FC908E010F5F1F4F6801E114F104A1
:1018800079F0D701ED91FC910680F781E02DB80148
:10189000C7010995080F111DF701E084F184EECF0F
:1018A000D8011C92F60101900020E9F73197BF01A1
:1018B0006C197D0940E0C601C6CF6CE773E0FB01FF
:1018C000449150E080E80E94710409CF973009F4F8
:1018D000BECF983021F481E08093F10000CF9930A1
:1018E00009F0FDCE837009F0B2CFE3E1F1E081E0D1
:1018F00031E096E32191222371F08093E900309347
:10190000EB00DF0111972C912093EC009093ED00F8
:101910008F5F873079F78EE78093EA001092EA00B4
:101920008F8980931C03DBCE8B8D9C8D1092E900F8
:10193000109238021092370290933602809335024B
:10194000898D811192C08E899D89913A49F48132A5
:1019500009F07DCF47E050E064E071E080E0B3CF74
:10196000913209F074CF833269F48F89988DB0E099
:10197000A0E08093000190930101A0930201B09335
:101980000301ADCE803269F48091E80082FFFCCF84
:1019900067E084E091E00E94C8048BEF8093E80048
:1019A0009ECE823209F09BCE8F8980930B01EEEFA1
:1019B000FFE7859194918B3F9C4D51F1E0E0F8E079
:1019C0008091040190910501A0910601B091070159
:1019D000803B9440A105B105F1F480910B0180FD9D
:1019E0001AC0EE3F8AE0F80789F587E797E7918309
:1019F0008083809160008093390288E19BE00FB67C
:101A0000F894A895809360000FBE9093600067CE15
:101A1000EEEFFAE0D5CF808191818737974709F0C3
:101A20005ECEA8958091600088618093600080916F
:101A3000390280936000EE3F2AE0F20789F080913E
:101A4000FE0A9091FF0A9183808349CE8081918123
:101A50008737980751F29093FF0A8093FE0AC5CF0B
:101A60001092FF0A1092FE0A3ACE0E94E202DC01B6
:101A700012960D911C910115110509F4E8CED801BB
:101A8000ED91FC910190F081E02DBE016B5E7F4FE6
:101A9000C8010995811123CEF80100851185EBCF8E
:101AA000181619060CF41BCED2CEF1E0FF12BECEF2
:101AB00060E873E004CF1F920F920FB60F921124CB
:101AC000AF92BF92CF92DF92EF92FF920F931F934C
:101AD0002F933F934F935F936F937F938F939F9336
:101AE000AF93BF93EF93FF93CF93DF9300D0CDB726
:101AF000DEB72091C8008091CE0090E09A83898360
:101B000023FF27C010923402109233028091C80044
:101B1000877F8093C80000000F900F90DF91CF91D6
:101B2000FF91EF91BF91AF919F918F917F916F91B5
:101B30005F914F913F912F911F910F91FF90EF90E7
:101B4000DF90CF90BF90AF900F900FBE0F901F907F
:101B5000189524FF0EC0109232021092310281E0DB
:101B600090E090933402809333028091C8008F7E7E
:101B7000D0CF80913302909134028230910509F4E4
:101B800014C1C8F4019739F689819A81892B09F526
:101B90008091930290919402892B01F184E090E06E
:101BA000909334028093330281E090E0909332026C
:101BB00080933102B0CF8330910509F40AC10497B4
:101BC00009F0A9CF80913102909132028130924088
:101BD00088F010923402109233029DCF80919102CE
:101BE00090919202019719F483E090E0D9CF82E0BE
:101BF00090E0D6CF61E087E00E946B038091800285
:101C0000882309F469C089819A81892B09F45EC00F
:101C100082E10E94CA0310E145970CF010E083E1D5
:101C20000E94CA0345970CF4106284E10E94CA0323
:101C300045970CF4106485E10E94CA0345970CF4A3
:101C40001068E0913102F0913202E35EFC4F808136
:101C50008F70808388E00E944203892B51F4E091C9
:101C60003102F0913202E35EFC4F80818160812B72
:101C700080838CE00E944203892B51F4E091310271
:101C8000F0913202E35EFC4F80818260812B808381
:101C900084E00E944203892B51F4E0913102F091DB
:101CA0003202E35EFC4F80818460812B80838BE075
:101CB0000E944203892B51F4E0913102F0913202EB
:101CC000E35EFC4F80818860182B10838091310285
:101CD0009091320201966ACFF12CE12C34E6B32EBA
:101CE000E0913102F0913202E35EFC4F808190E09E
:101CF0000E2C02C0959587950A94E2F780FF3BC0B1
:101D0000E0913102F0913202E35EFC4F008110E07D
:101D100024E0159507952A95E1F70F30110521F478
:101D200000913F021091400289819A81892B61F1D3
:101D30006701CC0CDD1CF601E75EFE4FA08061E080
:101D40008A2D0E94990361E08A2D0E946B0381E035
:101D500090E00115110529F0B09EC001B19E900DD3
:101D60001124F601EB57FD4F2081318128173907E7
:101D700010F4918380838FEFE81AF80A24E0E216CA
:101D8000F10409F0ADCFA2CF012BA9F7F701EE0FB7
:101D9000FF1FE75EFE4F108161E0812F0E949903D3
:101DA00060E0812F0E946B03E6CF809191029091B9
:101DB00092022091310230913202019782179307EB
:101DC00009F084CF83E090E0909334028093330253
:101DD0007DCF61E087E00E946B032091310230915A
:101DE000320280919102909192022817390739F4BA
:101DF00089819A819093300280932F0267CF8091DE
:101E0000910290919202209131023091320201961A
:101E10008217930739F489819A8190932E028093D7
:101E20002D0254CF80919102909192022091310223
:101E30003091320202968217930739F489819A8190
:101E400090932C0280932B0241CF8091910290912C
:101E50009202209131023091320203968217930749
:101E600009F059CE89819A8190932A0280932902A0
:101E700081E090E09093320280933102109234021C
:101E80001092330280912F029091300261E0892BF1
:101E900091F18AE00E94990361E08AE00E946B035D
:101EA00080912D0290912E0261E0892B49F189E009
:101EB0000E94990361E089E00E946B0380912B02EC
:101EC00090912C0261E0892B01F185E00E94990339
:101ED00061E085E00E946B038091290290912A02C3
:101EE00061E0892BB9F086E00E94990361E086E009
:101EF0000E946B0310CE8AE00E94990360E0CDCF70
:101F000089E00E94990360E0D6CF85E00E949903A2
:101F100060E0DFCF86E00E94990360E0E8CFEF92B7
:101F2000FF920F931F93CF93DF93F82E192FE62E76
:101F3000042F81E0860F880F0E94430483E00E94F3
:101F40004304CF2DD12FEC0EFD2EF11CCE15DF0555
:101F5000B9F007FF13C0FE0184910E944304182FBB
:101F600080E00E944304812321968111EFCFDF910D
:101F7000CF911F910F91FF90EF9008958881EDCF41
:101F800081E0F5CFEEE1F5E01382128288EE93E076
:101F9000A0E0B0E084839583A683B78385E291E0D7
:101FA000918380838FEF9FEF95878487EEE6F5E03E
:101FB00087E391E0918380831282138214821582D9
:101FC000E4E7F5E091838083128213821482158204
:101FD0000895CF93DF93CDB7DEB7CE54D1090FB6B6
:101FE000F894DEBF0FBECDBF789484B5826084BD07
:101FF00084B5816084BD85B5826085BD85B581600D
:1020000085BD80916E00816080936E00109281008A
:102010008091810082608093810080918100816045
:102020008093810080918000816080938000809106
:1020300091008260809391008091910081608093F3
:102040009100809190008160809390008091C10008
:1020500084608093C1008091C10082608093C10040
:102060008091C10081608093C1008091C300816034
:102070008093C3008091C00082608093C0008091F3
:10208000C20081608093C20080917A008460809356
:102090007A0080917A00826080937A0080917A0041
:1020A000816080937A0080917A00806880937A00C2
:1020B00010921C0310923C0210923B028091D700B8
:1020C00081608093D70080EA8093D80089B58061D1
:1020D00089BD89B5826089BD09B400FEFDCF61E08C
:1020E00070E080E090E00E9411048091D8008F7C25
:1020F00080618093D8008091E000807F8093E00031
:102100008091E1008E7E8093E1008DE08093E2007B
:10211000559A209A60E088E00E94990360E08CE084
:102120000E94990360E084E00E94990360E08BE0E4
:102130000E94990360E082E10E94990360E083E1DC
:102140000E94990360E084E10E94990360E085E1C8
:102150000E94990360E086E10E94990360E087E1B4
:102160000E94990361E082E00E94990361E087E0A8
:102170000E94990361E088E00E946B0361E08CE0BB
:102180000E946B0361E084E00E946B0361E08BE0DE
:102190000E946B0361E082E10E946B0361E083E1D6
:1021A0000E946B0361E084E10E946B0361E085E1C2
:1021B0000E946B0361E086E10E946B0361E087E1AE
:1021C0000E946B0388E00E9442032F969FAF8EAF60
:1021D0002F978CE00E9442032D969FAF8EAF2D97D4
:1021E00084E00E9442032B969FAF8EAF2B978BE02B
:1021F0000E94420329969FAF8EAF29972F968EADEE
:102200009FAD2F97019709F0CDC12F961FAE1EAE3F
:102210002F972D968EAD9FAD2D97019709F0C9C1CF
:102220002D961FAE1EAE2D972B968EAD9FAD2B9784
:10223000019709F0C5C12B961FAE1EAE2B972996AC
:102240008EAD9FAD2997019709F0C1C129961FAEA8
:102250001EAE299782E10E94CA0345970CF0BEC1C9
:1022600081E090E027969FAF8EAF279783E10E9491
:10227000CA0345970CF0B7C181E090E025969FAF67
:102280008EAF259784E10E94CA0345970CF0B0C138
:1022900081E090E023969FAF8EAF239785E10E9467
:1022A000CA0345970CF0A9C181E090E021969FAF49
:1022B0008EAF219786E10E94CA0345970CF0A2C118
:1022C00081E090E09EAF8DAF87E10E94CA03459701
:1022D0000CF09BC181E090E0909394028093930274
:1022E0008DAD9EAD2196CEACDFAC21972396EEACA2
:1022F000FFAC239725960EAD1FAD25972796AEAD63
:10230000BFAD27972996EEADFFAD29972B966EAD01
:102310007FAD2B972D964EAD5FAD2D972F962EADA1
:102320003FAD2F97880F991F8C0D9D1D880F991F0A
:102330008E0D9F1D880F991F800F911F880F991F69
:102340008A0F9B1F880F991F8E0F9F1F880F991F41
:10235000860F971F880F991F840F951F880F991F4D
:10236000820F931F90939202809391028091910229
:10237000909192028D3F914030F08DEF91E09093DB
:1023800092028093910278948FEF9FEF90932B05A8
:1023900080932A0568EE73E080E090E00E941104CB
:1023A00010927F0210923E0210923D026EE578E09C
:1023B0008CE691E00E9414096FED76E082E791E0EF
:1023C0000E94140969E878E087E791E00E94140907
:1023D00062E978E08CE791E00E9414096BE978E00B
:1023E00081E891E00E94140966EE76E087E891E0CA
:1023F0000E9414096DE377E08BE891E00E941409D4
:1024000061EB76E08FE891E00E94140965E378E0E3
:1024100085E991E00E941409109280028091930254
:1024200090919402892B09F4FCC086E10E94CA03B2
:1024300045970CF0EFC08AE991E00E947A0881E0AC
:1024400080938002EDE1F3E081E092E0DF019C0106
:102450001D9221503040E1F719E1E12E11E0F12EFB
:1024600010E000E0D701DC90B2E0EB0EF11C61E07F
:102470008D2D0E94990360E08D2D0E946B03F80161
:10248000EE0FFF1FEB57FD4F118210820F5F1F4FA2
:102490000430110539F721968EAD9FAD2197239613
:1024A000EEACFFAC239725960EAD1FAD2597279672
:1024B000AEADBFAD27972996EEADFFAD29972B9610
:1024C0006EAD7FAD2B972D964EAD5FAD2D972F96B0
:1024D0002EAD3FAD2F97880F991F8E0D9F1D880F32
:1024E000991F800F911F880F991F8A0F9B1F880FBC
:1024F000991F8E0F9F1F880F991F860F971F880F98
:10250000991F840F951F880F991F820F931F909317
:10251000400280933F0260E082E00E946B03809162
:10252000910290919202892B31F4809193029091C3
:102530009402892B79F083E08093CC001092CD0037
:102540001092CE001092C80080E98093C9008EE0FE
:102550008093CA0000E010E0FF24F3948EE195E040
:102560000E94E605892B09F4E5C08EE195E00E9402
:10257000A405E82EEAE08E1709F467C0FDE08F1786
:1025800009F463C028E08213C2C068E08EE195E0E0
:102590000E94D50480917F02882301F381508093AB
:1025A0007F02DCCF81E090E02F969FAF8EAF2F9718
:1025B00030CE81E090E02D969FAF8EAF2D9734CE38
:1025C00081E090E02B969FAF8EAF2B9738CE81E0C5
:1025D00090E029969FAF8EAF29973CCE27961FAEED
:1025E0001EAE279743CE25961FAE1EAE25974ACE28
:1025F00023961FAE1EAE239751CE21961FAE1EAE60
:10260000219758CE1EAE1DAE5FCE1092940210924E
:10261000930266CE8FE491E00E947A080E94000641
:102620001BCF62EC71E08EE195E00E94BE06409106
:1026300091025091920270E060E02AE08EE195E014
:102640000E9471070E94CD0666CFE0917F02F0E004
:10265000ED5BFD4F108269E371E08EE195E00E9431
:10266000BE0680914302882309F445C060ED71E005
:1026700083E492E00E94B6169A8389835E0133E078
:10268000A30EB11CCC24C394D12CEC2C9D2C60ED5A
:1026900071E090E080E00E94B616D5018D939D9385
:1026A0005D01BEE1CB16D10429F0EFEFCE1ADE0AB0
:1026B000892B59F7C0904102D0904202A980BA807C
:1026C000C114D104F9F0D6016D917C91C5010E942D
:1026D0002817892B99F4D6011296ED91FC91BE0131
:1026E0006F5F7F4F8E2D992D09950E94CD068FEA41
:1026F00093E00E947A0510927F0230CFF601C480E9
:10270000D580DECF83EB93E00E94D306EECF682F17
:102710008EE195E00E94D504E0917F02EB3308F052
:102720001DCF81E08E0F80937F02F0E0ED5BFD4FC7
:10273000E08214CF8091930290919402892B09F446
:1027400080C08FB7F8948090960290909702A090E6
:102750009802B09099028FBF40918D0250918E02E5
:1027600060918F02709190022A013B01F0E14F0EBF
:10277000F7E25F1E611C711C81E090E0A0E0B0E018
:102780002FEF421652066206720618F480E090E0BF
:10279000DC01840D951DA61DB71D88159905AA0598
:1027A000BB0508F0F9C084169506A606B70608F022
:1027B000ECC062ED71E08EE195E00E94BE06D12C86
:1027C000C12CF601EE0FFF1FEB57FD4F40815181E9
:1027D00070E060E02AE08EE195E00E94710760ED14
:1027E00071E08EE195E00E94BE063FEFC31AD30A66
:1027F00084E0C816D10429F784ED91E00E947A089C
:102800002FB7F8948091960290919702A091980228
:10281000B09199022FBF80938D0290938E02A09366
:102820008F02B0939002C3C0875E9E4FDC01EC9094
:1028300061E08E2D0E94990360E08E2D0E946B0353
:1028400033C18091910290919202892B09F009C1C4
:102850008AE192E00E947A0861E08AE00E9499038E
:1028600061E08AE00E946B0361E089E00E949903C5
:1028700060E089E00E946B0361E085E00E949903BB
:1028800060E085E00E946B0361E086E00E949903AE
:1028900060E086E00E946B0368EE73E080E090E009
:1028A0000E94110461E08AE00E94990360E08AE0DE
:1028B0000E946B0361E089E00E94990361E089E076
:1028C0000E946B0361E085E00E94990360E085E06F
:1028D0000E946B0361E086E00E94990360E086E05D
:1028E0000E946B0368EE73E080E090E00E941104A8
:1028F00061E08AE00E94990360E08AE00E946B0335
:1029000061E089E00E94990360E089E00E946B0326
:1029100061E085E00E94990361E085E00E946B031D
:1029200061E086E00E94990360E086E00E946B030C
:1029300068EE73E080E090E00E94110461E08AE0BC
:102940000E94990360E08AE00E946B0361E089E0E5
:102950000E94990360E089E00E946B0361E085E0DA
:102960000E94990360E085E00E946B0361E086E0CD
:102970000E94990361E086E00E946B0368EE73E0B9
:1029800080E090E00E94110463CF481759076A075E
:102990007B0708F40ECF0BC0481759076A077B075F
:1029A00030F484169506A606B70608F402CF8FB752
:1029B000F8948090960290909702A0909802B09020
:1029C00099028FBF409181025091820260918302EF
:1029D000709184022A013B01A4E64A0E511C611C3D
:1029E000711C81E090E0A0E0B0E0EFEF4E165E06D3
:1029F0006E067E0618F480E090E0DC01840D951DE3
:102A0000A61DB71D88159905AA05BB0588F584166E
:102A10009506A606B706B0F1481759076A077B075F
:102A200088F18091800281110BC086E10E94CA0367
:102A3000459734F486ED91E00E947A08F092800286
:102A400080918002882369F086E10E94CA0345973D
:102A500044F08DEE91E00E947A080E941A061092CE
:102A600080020115110509F479CD0E94000076CD90
:102A7000481759076A077B07A0F684169506A6062D
:102A8000B70678F6D12CC12CC601880F991FFC011E
:102A9000EB57FD4F20813181232B09F4C5CE808176
:102AA0009181019791838083BFEFCB1ADB0AE4E029
:102AB000CE16D10449F72FB7F894809196029091E1
:102AC0009702A0919802B09199022FBF8093810242
:102AD00090938202A0938302B093840260E087E027
:102AE0000E946B039ECF0F931F93CF93DF9382308F
:102AF000910510F482E090E0E0917E05F0917F0571
:102B000030E020E0B0E0A0E0309799F421153105E5
:102B100009F44AC0281B390B24303105D8F58A81C5
:102B20009B816115710589F1FB0193838283FE010D
:102B300011C0408151810281138148175907E0F08B
:102B40004817590799F4109761F012960C93129751
:102B500013961C933296CF01DF91CF911F910F9165
:102B6000089500937E0510937F05F4CF211531055C
:102B700051F04217530738F0A901DB019A01BD015A
:102B8000DF01F801C1CFEF01F9CF90937F0580936A
:102B90007E05CDCFFE01E20FF31F8193919322506A
:102BA000310939832883D7CF20917C0530917D0569
:102BB000232B41F420910E0130910F0130937D05BC
:102BC00020937C0520910C0130910D0121153105D8
:102BD00041F42DB73EB74091100150911101241BD3
:102BE000350BE0917C05F0917D05E217F307A0F429
:102BF0002E1B3F0B2817390778F0AC014E5F5F4F53
:102C00002417350748F04E0F5F1F50937D05409302
:102C10007C05819391939FCFF0E0E0E09CCFCF9330
:102C2000DF930097E9F0FC01329713821282A091A2
:102C30007E05B0917F05ED0130E020E01097A1F412
:102C400020813181820F931F20917C0530917D0579
:102C50002817390709F061C0F0937D05E0937C05E2
:102C6000DF91CF910895EA01CE17DF07E8F54A8199
:102C70005B819E0141155105B1F7E901FB83EA83B0
:102C800049915991C40FD51FEC17FD0761F480815C
:102C900091810296840F951FE9019983888382812F
:102CA00093819B838A83F0E0E0E012968D919C9162
:102CB00013970097B9F52D913C911197CD0102968C
:102CC000820F931F20917C0530917D0528173907CD
:102CD00039F6309751F510927F0510927E05B0932A
:102CE0007D05A0937C05BCCFD383C28340815181F5
:102CF000840F951FC817D90761F44E5F5F4F888115
:102D00009981480F591F518340838A819B81938306
:102D100082832115310509F0B0CFF0937F05E09350
:102D20007E059ECFFD01DC01C0CF13821282D7CF7A
:102D3000FC0188279927E89421912032E9F3293072
:102D400010F02E30C8F32B3241F02D3239F4689454
:102D500004C00E94E216820F911D219120532A3057
:102D6000C0F31EF4909581959F4F08954AE755E072
:102D70000E94BB160895FA01A191B081009719F441
:102D80001097E1F0CD01DC01CD010D90002011F490
:102D9000C00113C0FB012191222319F02015D9F79E
:102DA000F3CFFB012191201519F41E92119606C054
:102DB0002223C1F70D900020A1F7D001FA01A193C1
:102DC000B08308957AE0979F902D879F802D910D75
:102DD00011240895F999FECF92BD81BDF89A9927E3
:102DE00080B50895262FF999FECF1FBA92BD81BDF7
:102DF00020BD0FB6F894FA9AF99A0FBE019608957D
:102E0000A1E21A2EAA1BBB1BFD010DC0AA1FBB1FEE
:102E1000EE1FFF1FA217B307E407F50720F0A21B60
:102E2000B30BE40BF50B661F771F881F991F1A94CD
:102E300069F760957095809590959B01AC01BD01F7
:102E4000CF010895EE0FFF1F0590F491E02D099436
:102E5000FB01DC018D91019080190110D9F3990BD0
:102E60000895FB01DC0101900D920020E1F7089527
:042E7000F894FFCF04
:102E7400FFFFFFFF00E100000000000000008005EC
:102E8400800000C180810000000A000900050006DE
:102E940000000000006405DF04A0059505E605A414
:102EA40005C20500000000EF070D0A0053617669B2
:102EB4006E6720454550524F4D2064617461004C4B
:102EC4006F6164696E6720454550524F4D206461BF
:102ED40074610052656C61793A003B0072656C6103
:102EE400790068656C700073617665006C6F61646D
:102EF400007072696E74007365740064656C0063BD
:102F04006C656172006B696C6C00456E7465726906
:102F14006E67206C6561726E696E67206D6F6465A3
:102F2400202620636C6561722073657474696E6712
:102F34007300537461727420416464726573733AEC
:102F440020005B005D00456E746572696E67206CDD
:102F54006561726E696E67206D6F6465004C6561B2
:102F640076696E67206C6561726E696E67206D6F3D
:102F740064652C20736176696E67206461746120D6
:102F8400746F20454550524F4D0052656C61792055
:062F940044656D6F0000B2
:00000001FF
