:100000000C948E020C94B6020C94B6020C94B602B8
:100010000C94B6020C94B6020C94B6020C94B60280
:100020000C94B6020C94B6020C94DE0B0C944D0C9E
:100030000C94B6020C94B6020C94B6020C94B60260
:100040000C94B6020C94B6020C94B6020C94B60250
:100050000C94B6020C94B6020C94B6020C94940B59
:100060000C94B6020C947F0E0C94B6020C94B6025B
:100070000C94B6020C94B6020C94B6020C94B60220
:100080000C94B6020C94B6020C94B6020C94B60210
:100090000C94790A0C94B6020C94B6020C94B60235
:1000A0000C94B6020C94B6020C94B6020A55736511
:1000B00020746865736520636F6D6D616E64733A5B
:1000C000202768656C7027202D2074686973207460
:1000D0006578740A2772656C6179202327202D20AA
:1000E0007365742072656C61792023207365747563
:1000F0007020666F722028312D34290A27736574A9
:10010000203C444D58206368616E6E656C20233E30
:10011000205B3C64656C617920696E203130733EF0
:100120005D27202D206173736F6369617465207290
:10013000656C61792077697468206368616E6E65AB
:100140006C0A2764656C203C444D58206368616EDE
:100150006E656C20233E27202D2064652D6173730E
:100160006F63696174652072656C61792077697469
:1001700068206368616E6E656C200A276D696E2069
:100180003C312E2E3235353E272073657420747233
:100190006573686F6C642076616C756520666F723C
:1001A0002063757272656E742072656C61790A27BE
:1001B0007072696E7427202D207072696E742061D0
:1001C00073736F63696174696F6E207461626C65CB
:1001D0000A277361766527202D2073617665206379
:1001E000757272656E7420636F6E66696720696EE2
:1001F000204E5652414D0A276C6F616427202D20F6
:100200006C6F616420636F6E6669672066726F6DE4
:10021000204E5652414D0A276B696C6C27202D20C9
:1002200074657374207761746368646F670A276309
:100230006C65617227202D20636C6561722061738B
:10024000736F63696174696F6E207461626C65209D
:10025000696E2052414D0A00696E76616C696420B6
:1002600072656C6179230043757272656E742072D9
:10027000656C61793A2000536574206D696E207653
:10028000616C756520004E6F2043757272656E74E7
:100290002072656C617920646566696E65642C20E6
:1002A000757365202772656C61792720636F6D6DAA
:1002B000616E6400696E76616C69642076616C754C
:1002C00065004D696E696D616C2076616C75657352
:1002D00020666F722072656C6179733A0044656CB8
:1002E0006179206D75737420626520696E20302EEF
:1002F0002E3134203130732072616E676500444DB9
:1003000058204368616E6E656C206D757374206251
:100310006520696E20312E2E3531322072616E6774
:10032000650075736167653A202761646420234422
:100330004D586368616E6E656C205B64656C6179B5
:100340005F696E5F31307365635D004E6F2043758A
:100350007272656E742072656C617920646566697D
:100360006E65642C20757365202772656C61792732
:1003700020636F6D6D616E640075736167653A200F
:100380002764656C2023444D586368616E6E656C0C
:1003900000444D58204368616E6E656C206D757326
:1003A0007420626520696E20312E2E353132207224
:1003B000616E6765004E6F2043757272656E7420C2
:1003C00072656C617920646566696E65642C207560
:1003D0007365202772656C61792720636F6D6D618D
:1003E0006E64003E3E2000080B000202020000097D
:1003F0000400000102020000052400100105240190
:1004000001010424020605240600010705810310EA
:10041000004009040100020A000000070502024032
:1004200000000705830240000004030904120100D4
:1004300002EF020140412336800001010203014125
:10044000726475696E6F204C4C430041726475692B
:100450006E6F204C656F6E6172646F004D696E69DE
:100460006D616C2076616C75657320666F722072A9
:10047000656C6179733A00496E76616C69642063DA
:100480006F6D6D616E6400070605040100080A0BBC
:100490000C0D0900000000240027002A002D003068
:1004A0000000000000250028002B002E0031000075
:1004B0000000002300260029002C002F0004040463
:1004C00004040304050202020204030202020206FB
:1004D00006060606060404020202040404080201D9
:1004E000104080401020408040800802040180407D
:1004F0002010020110801020404020000000020067
:10050000090F0000030401000C00000000000000BF
:1005100000000000000000000000EC1011241FBECD
:10052000CFEFDAE0DEBFCDBF12E0A0E0B1E0EEE356
:10053000F1E302C005900D92AE33B107D9F725E083
:10054000AEE3B2E001C01D92AC39B207E1F712E0B0
:10055000CEE8D2E004C02197FE010E948018CD3879
:10056000D107C9F70E9413110C949D180C94000038
:10057000FC0180913803882311F13FB7F89482E0A1
:100580008093E9002091F200822F90E0181619065E
:1005900014F481E090E0882339F0289844E64093F1
:1005A00037034091F1004083222339F02091F2007B
:1005B000211103C02BE62093E8003FBF08958FEF81
:1005C0009FEF08952FB7F89483E08093E90090910E
:1005D000E800892F807295FF04C09091F20080E4BA
:1005E000891B2FBF08952091ED02260F3327331F5B
:1005F00021323105ECF420911103FC0190E080E000
:10060000243069F082E00895A091ED022191AC01BF
:1006100043535D4FA40FB52FB11D2C930196861740
:1006200098F38091ED02680F6093ED0280E00895E9
:1006300081E0089508958FEF9FEF08958FEF9FEF6A
:1006400008958091C60290E0919581959109089551
:10065000CF93DF93CB01EA01642F0E94F302CE0116
:10066000DF91CF910895CF93DF931F92CDB7DEB77F
:10067000698361E0CE0101960E94F30281E090E07F
:100680000F90DF91CF9108958091BE0281110DC02E
:1006900082E08093BA0284E08093BB021092BD0294
:1006A0001092BC0281E08093BE028AEB92E0089532
:1006B00081508F3008F047C0E82FF0E0EE59FC4F32
:1006C0000C9480187F038303710377037B03A303D8
:1006D000A303A30386038C03900394039A03A30349
:1006E0009E03809180008F77809380000895809191
:1006F00080008F7DF9CF80918000877FF5CF84B512
:100700008F7784BD089584B58F7DFBCF8091900055
:100710008F77809390000895809190008F7DF9CF1E
:1007200080919000877FF5CF8091C0008F77809374
:10073000C00008958091C0008F7DF9CF8091C200E4
:10074000877F8093C2000895CF93DF93282F30E0F6
:10075000F901E550FB4F8491F901E452FB4FD4912C
:10076000F901E354FB4FC491CC23A1F081110E9405
:100770005803EC2FF0E0EE0FFF1FE155FB4FA59162
:10078000B491EC91ED2381E090E009F480E0DF91F9
:10079000CF91089580E090E0FACF1F93CF93DF933D
:1007A000282F30E0F901E550FB4F8491F901E45224
:1007B000FB4FD491F901E354FB4FC491CC23A9F032
:1007C000162F81110E945803EC2FF0E0EE0FFF1F4F
:1007D000EF55FB4FA591B4918FB7F894EC9111119F
:1007E00008C0D095DE23DC938FBFDF91CF911F919E
:1007F0000895DE2BF8CFCF93DF9390E0FC01E45215
:10080000FB4F249183549B4FFC0184918823D1F0AA
:1008100090E0880F991FFC01ED56FB4FA591B49114
:10082000FC01EF55FB4FC591D49161110EC09FB7EC
:10083000F8948C91E22FE0958E238C932881E2230B
:10084000E8839FBFDF91CF9108958FB7F894EC9123
:10085000E22BEC938FBFF6CF8251E82FF0E0E957FF
:10086000FB4FE49190917B008E2F880F880F807250
:100870009F7D892B80937B00E770E064E0937C0090
:1008800080917A00806480937A0080917A0086FD5E
:10089000FCCF809178009091790008953FB7F8944B
:1008A0008091B6029091B702A091B802B091B902BE
:1008B00026B5A89B05C02F3F19F00196A11DB11DBB
:1008C0003FBFBA2FA92F982F8827BC01CD01620FF7
:1008D000711D811D911D42E0660F771F881F991FB2
:1008E0004A95D1F708958F929F92AF92BF92CF927F
:1008F000DF92EF92FF924B015C010E944E046B016C
:100900007C010E944E046C197D098E099F09683E86
:10091000734081059105A8F321E0821A9108A1088E
:10092000B10888EEC80E83E0D81EE11CF11C8114CA
:100930009104A104B10429F7FF90EF90DF90CF90CC
:10094000BF90AF909F908F90089540914F0250912B
:10095000500220914D0230914E0242175307B4F4D9
:100960009091E8009570E1F39091E80092FD19C034
:100970008093F10080914F029091500201968F7305
:100980009927892B19F48EEF8093E80080914F020C
:100990009091500201969093500280934F0281E013
:1009A000089580E00895DF92EF92FF920F931F93D6
:1009B000CF93DF93D82E8A01EB017B01E40EF51E65
:1009C000CE15DF0559F0D7FE12C0FE0184910E94BA
:1009D000A50421968111F4CF0FEF1FEFC801DF911D
:1009E000CF911F910F91FF90EF90DF900895888134
:1009F000EECF0F931F93CF93DF931F92CDB7DEB748
:100A000082E0898342E450E067EE73E080E80E9470
:100A1000D3040E944403DC0112960D911C91011530
:100A2000110589F0D801ED91FC910280F381E02D50
:100A3000BE016F5F7F4FC801099597FD04C0F801A3
:100A400000851185ECCF89810F90DF91CF911F91A7
:100A50000F910895615030F02091F100FC01208346
:100A60000196F8CF289884E6809337030895DC0137
:100A7000ED91FC910190F081E02D099490E080E0EF
:100A800008958F929F92AF92BF92CF92DF92EF9292
:100A9000FF920F931F93CF93DF936C017B018A0129
:100AA00080910B01882309F45CC08091380388236E
:100AB00009F457C08091530280FF05C08091E00087
:100AC00082608093E000E801B12C8AEFA82E93E0C9
:100AD000892E2AE3922E209711F4BB20D9F10E948F
:100AE000E20281110AC0AA94AA20D9F161E070E063
:100AF00080E090E00E947304EECF8C171D0611F089
:100B00000CF08C2F9FB7F8948092E9002091E800B8
:100B100025FD02C09FBFDFCF282F30E0C21BD30BC3
:100B2000F701815020F041914093F100FACFE20E9D
:100B3000F31EBB2021F09092E800B12CEBCF809106
:100B4000E80085FDE7CF9092E800BB24B39420979E
:100B500009F3F3CF5D9884E68093520210161106D4
:100B60003CF081E090E0F6019383828310E000E0A6
:100B7000C801DF91CF911F910F91FF90EF90DF900F
:100B8000CF90BF90AF909F908F900895CF93DF93B9
:100B90001F92CDB7DEB76983DC01ED91FC91028035
:100BA000F381E02D41E050E0BE016F5F7F4F09957A
:100BB0000F90DF91CF9108950F931F93CF93DF9301
:100BC0008C01D0E0C0E0F801EC0FFD1F64916623BA
:100BD00041F08AE395E00E94C605892B11F0219629
:100BE000F2CFCE01DF91CF911F910F91089583E055
:100BF0008093E9008091F200882319F08AE38093C2
:100C0000E80008950E94E20290E00895CF93DF93F8
:100C10001F92CDB7DEB7FC018485958597FD08C08E
:100C20002FEF3FEF358724870F90DF91CF91089505
:100C3000CE0101960E94B802019719F4898190E0D3
:100C4000F3CF8FEF9FEFF0CF0F931F93CF93DF93EF
:100C50001F92CDB7DEB78C01FC018485958597FF87
:100C60000BC0CE0101960E94B802019771F48981F0
:100C700090E0F80195878487F801848595850F9029
:100C8000DF91CF911F910F9108958FEF9FEFF1CFDB
:100C9000FC018485958597FD0BC09FB7F89482E091
:100CA0008093E9008091F2009FBF90E00196089543
:100CB0009FB7F89482E08093E9008091F2009FBF93
:100CC00090E008950F931F93CF93DF9309E313E010
:100CD000D0E0C0E0CE010E944818F80181938F0156
:100CE0002196C130F2E0DF07A9F789E393E0DF91B5
:100CF000CF911F910F9108951F93CF93DF9385EDAF
:100D00008093BC008091C9029091CA02A091CB024D
:100D1000B091CC020796A11DB11D23E0B695A79511
:100D2000979587952A95D1F72091BC0024FD03C0A3
:100D30001092110352C04091C9025091CA026091B1
:100D4000CB027091CC02452B462B472B69F30097C1
:100D5000A105B10541F025E32A95F1F700000197BF
:100D6000A109B109E1CF8091C802C1E0C093C702D7
:100D7000882399F1D091B8001091BA008091BC00FD
:100D80008A7B8093BC0060E082E00E94CD0360E03B
:100D900083E00E94CD0310921103C09313031092BD
:100DA000120361E082E00E94CD0361E083E00E94D3
:100DB000CD038091B9008E7F8093B9008091B900F6
:100DC0008D7F8093B90088E48093B80085E4809398
:100DD000BC001093BA00D093B800DF91CF911F915F
:100DE0000895FB0101900020E9F73197AF01461B00
:100DF000570BDC01ED91FC910280F381E02D099409
:100E000069E371E08AE395E00E94F10683EE93E0E6
:100E10000C94DC05CF93DF930E94DC05EC0169E3C1
:100E200071E08AE395E00E94F1068C0F9D1FDF912F
:100E3000CF9108958CEA90E00E940A0781E090E04B
:100E40000895CF92DF92EF92FF921F93CF93DF939B
:100E50006C017B01109140028BE493E0112391F02F
:100E600082E293E022E0C216D10464F0FB018281A9
:100E700093810E94F617EC0101978115924070F062
:100E80008EEF92E00E940A0790E080E0DF91CF9120
:100E90001F91FF90EF90DF90CF90089522E0C2164F
:100EA000D10459F0F701848195810E94F6179C01C5
:100EB00040972CF08DED92E0E5CF2FE030E0C75C5D
:100EC000DC4F98819F70612F6150770BAB0161E01F
:100ED00070E001C0660F4A95EAF7962B84E0220F76
:100EE000331F8A95E1F7922B988381E090E0CECF73
:100EF000CF93DF93C0914002C11109C085EB93E00D
:100F00000E940A0790E080E0DF91CF910895029758
:100F10001CF489E793E0F4CFFB01828193810E9466
:100F2000F6179C01215031092115324018F081E952
:100F300093E0E6CFFC01E75CFC4FC150DD0B21E004
:100F400030E001C0220FCA95EAF72095808128235E
:100F5000208381E090E0D8CF8F929F92AF92BF9292
:100F6000EF92FF920F931F93CF93DF93CDB7DEB72E
:100F7000A1970FB6F894DEBF0FBECDBF7C01FA017A
:100F8000CB0119A2223008F42AE08E010F5D1F4F19
:100F9000822E912CB12CA12CBF01A50194010E949D
:100FA0005E18F901CA016A300CF5605DD8016E93D4
:100FB0008D01232B242B252B79F790E080E01097CF
:100FC00021F0BD01C7010E94F106A1960FB6F89469
:100FD000DEBF0FBECDBFDF91CF911F910F91FF906C
:100FE000EF90BF90AF909F908F900895695CDECF97
:100FF000CF92DF92EF92FF92CF93DF93AB01BC01D0
:1010000077FF1DC06A017C016DE28AE395E00E94D2
:101010003705EC0144275527BA014C195D096E09C3
:101020007F092AE08AE395E00E94AC078C0F9D1FA0
:10103000DF91CF91FF90EF90DF90CF9008952AE05D
:101040008AE395E0DF91CF91FF90EF90DF90CF9012
:101050000C94AC078F929F92AF92BF92CF92DF9287
:10106000EF92FF920F931F93CF93DF937C018B013D
:101070006C0182E0C80ED11C4701E5E08E0E911C88
:10108000D0E0C0E0F60141916F0150E070E060E017
:101090002AE0C8010E94AC075C016EE2C8010E9410
:1010A00037058A0D9B1DC80FD91FC814D90451F7E5
:1010B000F701458150E070E060E02AE0C8010E943D
:1010C000AC078C0F9D1FDF91CF911F910F91FF9067
:1010D000EF90DF90CF90BF90AF909F908F9008954A
:1010E000CF93DF93BC018AE395E00E94F106EC0107
:1010F00069E371E08AE395E00E94F1068C0F9D1F81
:10110000DF91CF9108958CE391E00E9470080E94D6
:10111000620681E090E00895CF93DF93482F50E07E
:1011200070E060E02AE08AE395E00E94AC07EC0101
:1011300069E371E08AE395E00E94F1068C0F9D1F40
:10114000DF91CF910895029739F4FB018281938159
:101150000E94F617809340028091400281508430B3
:1011600038F088E592E00E940A0790E080E0089558
:1011700087E692E00E94DC05809140020E948C0884
:1011800081E090E00895CF93C1E068EE73E080E0E5
:1011900090E00E9473048C2F0E948C08CF5FC431B2
:1011A000A1F781E090E0CF9108954F925F926F9206
:1011B0007F92AF92BF92CF92DF92EF92FF920F9306
:1011C0001F93CF93DF93C12CD12C7601C39401E000
:1011D00010E060E571E08AE395E00E94F106C70146
:1011E000B6010E94F80769E371E08AE395E00E9486
:1011F000F106C6010197580102C0AA0CBB1C8A95D2
:10120000E2F7C9E3D3E0412C512C320143948981A8
:1012100090E08A219B21892BD9F0C301B2010E9461
:10122000F80765E571E08AE395E00E94F1066981BF
:1012300070E084E0759567958A95E1F7072E000CBC
:10124000880B990B0E94F80787E591E00E947008CF
:1012500021968FEF481A580A680A780A81E04816E2
:1012600082E058066104710491F68FEFC81AD80A1B
:10127000E80AF80A85E0C816D104E104F10409F08F
:10128000A8CF81E090E0DF91CF911F910F91FF9067
:10129000EF90DF90CF90BF90AF907F906F905F9076
:1012A0004F900895CF92DF92EF92FF920F931F938A
:1012B000CF93DF936C018B0186E090E00E94D11602
:1012C000EC0190935E0280935D02F6010190002094
:1012D000E9F7CF018C199D090E94D1167C01B60156
:1012E0000E949618F60101900020E9F73197EC1959
:1012F000FD09EE0DFF1D1082F982E8821B830A832F
:1013000080915502909156029D838C83D093560212
:10131000C0935502DF91CF911F910F91FF90EF90F5
:10132000DF90CF900895FF920F931F93CF93DF9399
:10133000EC01F62E08811981C8010E944818F816A0
:1013400021F06F2DC8010E945018CE01DF91CF917E
:101350001F910F91FF900895EF92FF920F931F93AB
:10136000CF93DF9300D0CDB7DEB789E3E82E83E0DB
:10137000F82E10E000E01A830983F70161917F01E4
:10138000CE0101960E9493090F5F1F4F0130F2E0DA
:101390001F0789F789E393E00F900F90DF91CF91BA
:1013A0001F910F91FF90EF90089589E591E00E94C1
:1013B00070080E94AC0981E090E00895EF92FF92DE
:1013C0000F931F93CF93DF9300D0CDB7DEB7E9E340
:1013D000F3E081E092E0DF019C011D92215030405A
:1013E000E1F744E050E061E070E087E592E00E94C0
:1013F000861887E5E82E82E0F82E02E012E01A83D4
:101400000983D7016D917D01CE0101960E94930958
:101410000F5F1F4F0630B2E01B0789F781E090E0B5
:101420000F900F90DF91CF911F910F91FF90EF9050
:1014300008950F931F93CF93DF9300D0CDB7DEB7FE
:101440008230910594F482EC92E00E940A0707E54D
:1014500012E0F80181918F010E948C08F2E00B35B7
:101460001F07B9F790E080E03DC011E0029751F40A
:10147000FB01828193810E94F617182F84EB92E082
:10148000112331F080914002811105C086E892E07D
:101490000E940A07E7CF90E0FC01EA5AFD4F108353
:1014A0008F5F9D4F9A838983612FCE0101960E94A1
:1014B000930987E792E00E94DC05412F50E070E03D
:1014C00060E02AE08AE395E00E94AC076CE671E0F8
:1014D0008AE395E00E94F106809140020E948C0808
:1014E00081E090E00F900F90DF91CF911F910F91CD
:1014F00008951F920F920FB60F9211242F933F93CE
:101500004F935F936F937F938F939F93AF93BF930B
:10151000EF93FF938091B900887F803609F44AC029
:10152000F0F5883209F4A5C018F5803109F499C0A6
:10153000B8F4882309F4F5C0883009F492C0FF910B
:10154000EF91BF91AF919F918F917F916F915F913B
:101550004F913F912F910F900FBE0F901F901895B4
:10156000883109F486C0803251F78093100314C08B
:10157000803409F49BC040F48033B9F38833F9F622
:101580008093100385ECAEC0803509F483C08835A4
:1015900009F494C0883499F60E947C06D0CF88392B
:1015A00009F48AC038F5883729F050F4883611F0EC
:1015B000803729F683E08093110310920F0355C002
:1015C000883809F479C0803919F0803809F0B7CF2C
:1015D00080910F03803208F06FC0E0910F0381E02B
:1015E0008E0F80930F038091BB00F0E0E151FD4F1F
:1015F00080833BC0803B39F0D0F4803A09F477C057
:10160000883A09F09CCF84E0809311031092EE0297
:101610001092ED02F0E0E0E009958091ED02811179
:101620000FC081E08093ED021092CD0209C0803C92
:1016300009F4A8CF883C09F4A5CF883B09F07FCFF7
:10164000E091EE0281E08E0F8093EE02F0E0E35332
:10165000FD4F80818093BB009091EE028091ED025E
:1016600029C0809136038093BB0085EC8093BC0039
:1016700066CF9091350380913403981758F5E09127
:10168000350381E08E0F80933503F0E0EC5EFC4F74
:101690008081E9CFE091350381E08E0F809335039F
:1016A0008091BB00F0E0EC5EFC4F808390913503AD
:1016B000809134039817C8F285E8D8CFE0913503BC
:1016C00081E08E0F809335038091BB00F0E0EC5EEB
:1016D000FC4F80838091130381115ECF81E0809362
:1016E000120384EA8093BC001092110328CF85EC8A
:1016F0008093BC001092110380910F03803230F46C
:10170000E0910F03F0E0E151FD4F108260910F0373
:1017100070E08FEE92E0F0E0E0E0099510920F03A8
:101720000ECF1092100338CF1F920F920FB60F9268
:1017300011242F933F938F939F93AF93BF938091E7
:10174000B2029091B302A091B402B091B50230916F
:10175000B10223E0230F2D3758F50196A11DB11DCD
:101760002093B1028093B2029093B302A093B4028B
:10177000B093B5028091B6029091B702A091B802E1
:10178000B091B9020196A11DB11D8093B60290934C
:10179000B702A093B802B093B902BF91AF919F91E5
:1017A0008F913F912F910F900FBE0F901F90189522
:1017B00026E8230F0296A11DB11DD2CF1F920F92D2
:1017C0000FB60F9211248F939F938091E100909117
:1017D000E100937F9093E10083FF0FC01092E90036
:1017E00091E09093EB001092EC0092E39093ED0067
:1017F0001092380398E09093F00082FF22C093E0AB
:101800009093E9009091F200992319F09AE3909354
:10181000E80090915202992341F090915202915028
:1018200090935202911101C05D9A909137039923D0
:1018300041F090913703915090933703911101C07B
:10184000289A84FF18C08091E2008E7E8160809388
:10185000E2008091E1008F7E8093E100809153024D
:101860008E7E8061809353029F918F910F900FBE67
:101870000F901F90189580FFF7CF8091E2008E7E29
:1018800080618093E2008091E1008E7E8093E10090
:10189000809153028E7E8160E5CF1F920F920FB62A
:1018A0000F921124CF92DF92EF92FF920F931F932A
:1018B0002F933F934F935F936F937F938F939F9358
:1018C000AF93BF93EF93FF93CF93DF93CDB7DEB783
:1018D0006C97DEBFCDBF1092E9008091E80083FFD6
:1018E00025C068E0CE0145960E942A0582EF8093CC
:1018F000E8008D8987FF39C09091E80090FFFCCF08
:10190000982F907609F034C19E894F89588D2F8980
:10191000F88C911131C0803861F580915402809328
:10192000F1001092F1008EEF8093E8006C960FB6F4
:10193000F894DEBF0FBECDBFDF91CF91FF91EF9145
:10194000BF91AF919F918F917F916F915F914F91D7
:101950003F912F911F910F91FF90EF90DF90CF90CB
:101960000F900FBE0F901F9018959EEF9093E80078
:10197000C7CF1092F100D5CF913059F48111D3CF58
:101980004130510581F6809154028D7F809354023D
:10199000CACF933049F48111C6CF4130510519F6B1
:1019A000809154028260F2CF953041F48091E8003A
:1019B00080FFFCCF20682093E300B5CF963009F07C
:1019C000A9C00B8D1C8D22E01092E90010925002EC
:1019D00010924F02F2122EC010924E0210924D023F
:1019E0000E94F9041F8299E09983FA8291E09E8314
:1019F00090EA98879AEF998720914F023091500290
:101A0000275F3F4F3C832B838D831092E900109218
:101A1000500210924F0210934E0200934D0249E083
:101A200050E0BE016F5F7F4F80E00E94D3040E94B0
:101A3000F90479CF10934E0200934D020E944403A3
:101A4000DC0112960D911C910115110509F451C18B
:101A5000D801ED91FC910480F581E02DBE016B5E13
:101A60007F4FC8010995009709F03EC1F801008534
:101A70001185EACFF3E0FF120EC08F89882309F4A5
:101A800040C0823061F440E860E18BE494E00E9461
:101A9000B910811148CF81E28093EB0047CF8130AC
:101AA00029F440E86BE08FE394E0F1CF833099F7BD
:101AB0000E944403DC011296ED90FC908E010F5FB2
:101AC0001F4F6801E114F10479F0D701ED91FC9109
:101AD0000680F781E02DB801C7010995080F111D97
:101AE000F701E084F184EECFD8011C92F601019059
:101AF0000020E9F73197BF016C197D0940E0C6016C
:101B0000C6CF69E274E0FB01449150E080E80E9496
:101B1000D30409CF973009F4BECF983021F481E087
:101B20008093F10000CF993009F0FDCE837009F069
:101B3000B2CFE3E1F1E081E031E096E321912223AD
:101B400071F08093E9003093EB00DF0111972C9145
:101B50002093EC009093ED008F5F873079F78EE74C
:101B60008093EA001092EA008F8980933803DBCEDD
:101B70008B8D9C8D1092E9001092500210924F02B2
:101B800090934E0280934D02898D811192C08E896F
:101B90009D89913A49F4813209F07DCF47E050E0C8
:101BA00064E071E080E0B3CF913209F074CF83320A
:101BB00069F48F89988DB0E0A0E080930001909344
:101BC0000101A0930201B0930301ADCE803269F40C
:101BD0008091E80082FFFCCF67E084E091E00E9402
:101BE0002A058BEF8093E8009ECE823209F09BCECF
:101BF0008F8980930B01EEEFFFE7859194918B3FE6
:101C00009C4D51F1E0E0F8E08091040190910501D4
:101C1000A0910601B0910701803B9440A105B10558
:101C2000F1F480910B0180FD1AC0EE3F8AE0F807C5
:101C300089F587E797E7918380838091600080939F
:101C4000510288E19BE00FB6F894A895809360005C
:101C50000FBE9093600067CEEEEFFAE0D5CF8081A3
:101C600091818737974709F05ECEA89580916000F3
:101C70008861809360008091510280936000EE3F04
:101C80002AE0F20789F08091FE0A9091FF0A918381
:101C9000808349CE808191818737980751F2909354
:101CA000FF0A8093FE0AC5CF1092FF0A1092FE0A27
:101CB0003ACE0E944403DC0112960D911C9101154D
:101CC000110509F4E8CED801ED91FC910190F08165
:101CD000E02DBE016B5E7F4FC8010995811123CEB7
:101CE000F80100851185EBCF181619060CF41BCEF0
:101CF000D2CEF1E0FF12BECE6DE274E004CF1F92AF
:101D00000F920FB60F921124AF92BF92CF92DF9233
:101D1000EF92FF920F931F932F933F934F935F93F5
:101D20006F937F938F939F93AF93BF93EF93FF93A3
:101D3000CF93DF9300D0CDB7DEB72091C80080915C
:101D4000CE0090E09A83898323FF27C010924C0233
:101D500010924B028091C800877F8093C8000000DA
:101D60000F900F90DF91CF91FF91EF91BF91AF91C5
:101D70009F918F917F916F915F914F913F912F91A3
:101D80001F910F91FF90EF90DF90CF90BF90AF9099
:101D90000F900FBE0F901F90189524FF0EC0109249
:101DA0004A021092490281E090E090934C028093A5
:101DB0004B028091C8008F7ED0CF80914B029091D2
:101DC0004C028230910509F41AC1C8F4019739F622
:101DD00089819A81892B09F58091AF029091B00297
:101DE000892B01F184E090E090934C0280934B02A8
:101DF00081E090E090934A0280934902B0CF833013
:101E0000910509F410C1049709F0A9CF8091490206
:101E100090914A028130924088F010924C021092C8
:101E20004B029DCF8091AD029091AE02019719F4C3
:101E300083E090E0D9CF82E090E0D6CF61E087E008
:101E40000E94CD0380919C02882309F469C0898196
:101E50009A81892B09F45EC082E10E942C0410E172
:101E600045970CF010E083E10E942C0445970CF498
:101E7000106284E10E942C0445970CF4106485E103
:101E80000E942C0445970CF41068E0914902F091EF
:101E90004A02E75CFC4F80818F70808388E00E945B
:101EA000A403892B51F4E0914902F0914A02E75CC6
:101EB000FC4F80818160812B80838CE00E94A40391
:101EC000892B51F4E0914902F0914A02E75CFC4F02
:101ED00080818260812B808384E00E94A403892B0F
:101EE00051F4E0914902F0914A02E75CFC4F808195
:101EF0008460812B80838BE00E94A403892B51F4A2
:101F0000E0914902F0914A02E75CFC4F80818860D1
:101F1000182B10838091490290914A0201966ACF52
:101F2000F12CE12C34E6B32EE0914902F0914A0203
:101F3000E75CFC4F808190E00E2C02C09595879560
:101F40000A94E2F780FF41C0E0914902F0914A0211
:101F5000E75CFC4F008110E024E0159507952A9579
:101F6000E1F70F30110521F400915B0210915C0242
:101F700089819A81F701E95AFD4F208128171906B6
:101F800009F064F56701CC0CDD1CF601E75EFE4F3D
:101F9000A08061E08A2D0E94FB0361E08A2D0E94EF
:101FA000CD0381E090E00115110529F0B09EC0013C
:101FB000B19E900D1124F601EF55FD4F2081318126
:101FC0002817390710F4918380838FEFE81AF80AF5
:101FD00024E0E216F10409F0A7CF9CCF012BA9F76A
:101FE000F701EE0FFF1FE75EFE4F108161E0812FCA
:101FF0000E94FB0360E0812F0E94CD03E6CF809119
:10200000AD029091AE022091490230914A020197AF
:102010008217930709F07ECF83E090E090934C0203
:1020200080934B0277CF61E087E00E94CD0320913F
:10203000490230914A028091AD029091AE02281778
:10204000390739F489819A81909348028093470235
:1020500061CF8091AD029091AE0220914902309102
:102060004A0201968217930739F489819A819093E5
:102070004602809345024ECF8091AD029091AE0210
:102080002091490230914A0202968217930739F44F
:1020900089819A8190934402809343023BCF80913F
:1020A000AD029091AE022091490230914A0203960E
:1020B0008217930709F053CE89819A819093420247
:1020C0008093410281E090E090934A02809349021C
:1020D00010924C0210924B0280914702909148025C
:1020E00061E0892B91F18AE00E94FB0361E08AE0C4
:1020F0000E94CD03809145029091460261E0892BB8
:1021000049F189E00E94FB0361E089E00E94CD0370
:10211000809143029091440261E0892B01F185E0B6
:102120000E94FB0361E085E00E94CD0380914102A3
:102130009091420261E0892BB9F086E00E94FB0396
:1021400061E086E00E94CD030ACE8AE00E94FB0394
:1021500060E0CDCF89E00E94FB0360E0D6CF85E050
:102160000E94FB0360E0DFCF86E00E94FB0360E09B
:10217000E8CFEF92FF920F931F93CF93DF93F82E48
:10218000192FE62E042F81E0860F880F0E94A504E8
:1021900083E00E94A504CF2DD12FEC0EFD2EF11C63
:1021A000CE15DF05B9F007FF13C0FE0184910E9430
:1021B000A504182F80E00E94A50481232196811197
:1021C000EFCFDF91CF911F910F91FF90EF90089586
:1021D0008881EDCF81E0F5CFEAE3F5E0138212824A
:1021E00088EE93E0A0E0B0E084839583A683B78374
:1021F00085E291E0918380838FEF9FEF95878487BD
:10220000EAE8F5E087E391E091838083128213820C
:1022100014821582E0E9F5E09183808312821382B3
:10222000148215820895CF93DF93CDB7DEB7CE54D5
:10223000D1090FB6F894DEBF0FBECDBF789484B538
:10224000826084BD84B5816084BD85B5826085BDB2
:1022500085B5816085BD80916E00816080936E0040
:102260001092810080918100826080938100809132
:1022700081008160809381008091800081608093E3
:102280008000809191008260809391008091910004
:102290008160809391008091900081608093900094
:1022A0008091C10084608093C1008091C1008260F0
:1022B0008093C1008091C10081608093C1008091B2
:1022C000C30081608093C3008091C00082608093CE
:1022D000C0008091C20081608093C20080917A002A
:1022E000846080937A0080917A00826080937A0083
:1022F00080917A00816080937A0080917A00806872
:1023000080937A0010923803109254021092530274
:102310008091D70081608093D70080EA8093D800B5
:1023200089B5806189BD89B5826089BD09B400FE27
:10233000FDCF61E070E080E090E00E947304809146
:10234000D8008F7C80618093D8008091E000807FEE
:102350008093E0008091E1008E7E8093E1008DE02B
:102360008093E200559A209A60E088E00E94FB0387
:1023700060E08CE00E94FB0360E084E00E94FB03CD
:1023800060E08BE00E94FB0360E082E10E94FB03BF
:1023900060E083E10E94FB0360E084E10E94FB03B4
:1023A00060E085E10E94FB0360E086E10E94FB03A0
:1023B00060E087E10E94FB0361E082E00E94FB0392
:1023C00061E087E00E94FB0361E088E00E94CD03AA
:1023D00061E08CE00E94CD0361E084E00E94CD03C7
:1023E00061E08BE00E94CD0361E082E10E94CD03B9
:1023F00061E083E10E94CD0361E084E10E94CD03AE
:1024000061E085E10E94CD0361E086E10E94CD0399
:1024100061E087E10E94CD0388E00E94A4032F962B
:102420009FAF8EAF2F978CE00E94A4032D969FAF95
:102430008EAF2D9784E00E94A4032B969FAF8EAFA2
:102440002B978BE00E94A40329969FAF8EAF29970C
:102450002F968EAD9FAD2F97019709F001C22F9651
:102460001FAE1EAE2F972D968EAD9FAD2D97019767
:1024700009F0FDC12D961FAE1EAE2D972B968EAD89
:102480009FAD2B97019709F0F9C12B961FAE1EAE99
:102490002B9729968EAD9FAD2997019709F0F5C12D
:1024A00029961FAE1EAE299782E10E942C04459703
:1024B0000CF0F2C181E090E027969FAF8EAF279796
:1024C00083E10E942C0445970CF0EBC181E090E081
:1024D00025969FAF8EAF259784E10E942C044597E7
:1024E0000CF0E4C181E090E023969FAF8EAF23977C
:1024F00085E10E942C0445970CF0DDC181E090E05D
:1025000021969FAF8EAF219786E10E942C044597BC
:102510000CF0D6C181E090E09EAF8DAF87E10E94C4
:102520002C0445970CF0CFC181E090E09093B0026D
:102530008093AF028DAD9EAD2196CEACDFAC2197DE
:102540002396EEACFFAC239725960EAD1FAD2597D5
:102550002796AEADBFAD27972996EEADFFAD299773
:102560002B966EAD7FAD2B972D964EAD5FAD2D9713
:102570002F962EAD3FAD2F97880F991F8C0D9D1D67
:10258000880F991F8E0D9F1D880F991F800F911F17
:10259000880F991F8A0F9B1F880F991F8E0F9F1FEF
:1025A000880F991F860F971F880F991F840F951FFB
:1025B000880F991F820F931F9093AE028093AD02F4
:1025C0008091AD029091AE028D3F914030F08DEF41
:1025D00091E09093AE028093AD0278948FEF9FEFDD
:1025E000909347058093460568EE73E080E090E0A5
:1025F0000E94730410929B02109256021092550290
:1026000063EA78E081E891E00E9452096AE177E0AC
:1026100087E891E00E94520965ED79E08CE891E04D
:102620000E94520963E878E081E991E00E94520932
:1026300065ED78E086E991E00E94520961E277E079
:102640008CE991E00E94520968E777E080EA91E026
:102650000E9452096EED79E084EA91E00E945209ED
:1026600063EC78E08AEA91E00E94520969E17AE03D
:102670008FEA91E00E94520910929C028091AF0271
:102680009091B002892B09F42AC186E10E942C04A2
:1026900045970CF01DC183EB91E00E94700881E02A
:1026A00080939C02E9E3F3E081E092E0DF019C018A
:1026B0001D9221503040E1F719E1E12E11E0F12E99
:1026C00010E000E0D701DC90B2E0EB0EF11C61E01D
:1026D0008D2D0E94FB0360E08D2D0E94CD03F8013B
:1026E000EE0FFF1FEF55FD4F118210820F5F1F4F3E
:1026F0000430110539F721968EAD9FAD21972396B1
:10270000EEACFFAC239725960EAD1FAD259727960F
:10271000AEADBFAD27972996EEADFFAD29972B96AD
:102720006EAD7FAD2B972D964EAD5FAD2D972F964D
:102730002EAD3FAD2F97880F991F8E0D9F1D880FCF
:10274000991F800F911F880F991F8A0F9B1F880F59
:10275000991F8E0F9F1F880F991F860F971F880F35
:10276000991F840F951F880F991F820F931F9093B5
:102770005C0280935B0282E092E00E9448188093A2
:10278000570283E092E00E9448188093580284E048
:1027900092E00E9448188093590285E092E00E94DE
:1027A000481880935A028CE594E00E940A0707E5D6
:1027B00012E0FF24F394F8018081811101C0F082BE
:1027C0000F5F1F4F80810E948C08E2E00B351E07CF
:1027D00091F760E082E00E94CD038091AD0290917C
:1027E000AE02892B31F48091AF029091B002892B17
:1027F00079F083E08093CC001092CD001092CE004F
:102800001092C80080E98093C9008EE08093CA00CE
:1028100000E010E0FF24F3948AE395E00E9448066C
:10282000892B09F4E5C08AE395E00E940606E82EAC
:10283000FAE08F1709F46BC02DE0821709F467C026
:1028400038E08313C2C068E08AE395E00E94370550
:1028500080919B02882301F3815080939B02DCCFFF
:1028600081E090E02F969FAF8EAF2F97FCCD81E057
:1028700090E02D969FAF8EAF2D9700CE81E090E037
:102880002B969FAF8EAF2B9704CE81E090E02996D8
:102890009FAF8EAF299708CE27961FAE1EAE279703
:1028A0000FCE25961FAE1EAE259716CE23961FAED1
:1028B0001EAE23971DCE21961FAE1EAE219724CEAD
:1028C0001EAE1DAE2BCE1092B0021092AF0232CED1
:1028D0008CE391E00E9470080E946206EDCE6BEDE1
:1028E00071E08AE395E00E94F1064091AD025091BB
:1028F000AE0270E060E02AE08AE395E00E94AC0757
:1029000069E371E08AE395E00E94F10634CFE0913B
:102910009B02F0E0E15AFD4F108269E371E08AE327
:1029200095E00E94F10680915F02882309F441C07E
:1029300069EE71E08FE592E00E9414189A83898312
:102940005E0183E0A80EB11CCC24C394D12CEC2CE6
:102950009D2C69EE71E090E080E00E941418D50192
:102960008D939D935D01BEE1CB16D10429F0EFEF6D
:10297000CE1ADE0A892B59F7C0905D02D0905E0214
:10298000A980BA80C114D104D9F0D6016D917C918F
:10299000C5010E948D18892B79F4D6011296ED910C
:1029A000FC91BE016F5F7F4F8E2D992D09950E947E
:1029B000000710929B0230CFF601C480D580E2CF91
:1029C00087E794E00E940A07F2CF682F8AE395E038
:1029D0000E943705E0919B02EB3308F01DCF81E0A8
:1029E0008E0F80939B02F0E0E15AFD4FE08214CFFE
:1029F0008091AF029091B002892B09F480C08FB70B
:102A0000F8948090B2029090B302A090B402B0907B
:102A1000B5028FBF4091A9025091AA026091AB020A
:102A20007091AC022A013B01F0E14F0EF7E25F1E0C
:102A3000611C711C81E090E0A0E0B0E02FEF421635
:102A400052066206720618F480E090E0DC01840D04
:102A5000951DA61DB71D88159905AA05BB0508F08B
:102A6000F2C084169506A606B70608F058C16BEEAC
:102A700071E08AE395E00E94F106D12CC12CF601A9
:102A8000EE0FFF1FEF55FD4F4081518170E060E078
:102A90002AE08AE395E00E94AC0769EE71E08AE3E0
:102AA00095E00E94F1063FEFC31AD30A84E0C816EE
:102AB000D10429F78DEE91E00E9470082FB7F894A9
:102AC0008091B2029091B302A091B402B091B5028C
:102AD0002FBF8093A9029093AA02A093AB02B09358
:102AE000AC02BCC0875E9E4FDC01EC9061E08E2D95
:102AF0000E94FB0360E08E2D0E94CD0333C18091C4
:102B0000AD029091AE02892B09F002C183E392E0FD
:102B10000E94700861E08AE00E94FB0361E08AE0A5
:102B20000E94CD0361E089E00E94FB0360E089E040
:102B30000E94CD0361E085E00E94FB0360E085E038
:102B40000E94CD0361E086E00E94FB0360E086E026
:102B50000E94CD0368EE73E080E090E00E94730471
:102B600061E08AE00E94FB0360E08AE00E94CD03FE
:102B700061E089E00E94FB0361E089E00E94CD03EF
:102B800061E085E00E94FB0360E085E00E94CD03E8
:102B900061E086E00E94FB0360E086E00E94CD03D6
:102BA00068EE73E080E090E00E94730461E08AE0E8
:102BB0000E94FB0360E08AE00E94CD0361E089E0AF
:102BC0000E94FB0360E089E00E94CD0361E085E0A4
:102BD0000E94FB0361E085E00E94CD0361E086E096
:102BE0000E94FB0360E086E00E94CD0368EE73E084
:102BF00080E090E00E94730461E08AE00E94FB03A1
:102C000060E08AE00E94CD0361E089E00E94FB035E
:102C100060E089E00E94CD0361E085E00E94FB0353
:102C200060E085E00E94CD0361E086E00E94FB0346
:102C300061E086E00E94CD0368EE73E080E090E002
:102C40000E94730463CF481759076A077B0730F463
:102C500084169506A606B70608F409CF8FB7F89430
:102C60008090B2029090B302A090B402B090B502EE
:102C70008FBF40919D0250919E0260919F02709182
:102C8000A0022A013B01A4E64A0E511C611C711CE2
:102C900081E090E0A0E0B0E0EFEF4E165E066E0639
:102CA0007E0618F480E090E0DC01840D951DA61DE1
:102CB000B71D88159905AA05BB05C0F584169506AC
:102CC000A606B706E8F1481759076A077B07C0F15F
:102CD00080919C0281110BC086E10E942C044597D3
:102CE00034F48FEE91E00E947008F0929C02809183
:102CF0009C02882369F086E10E942C04459744F0E9
:102D000086E092E00E9470080E94AC0910929C023A
:102D10000115110509F480CD0E9400007DCD4817F2
:102D200059076A077B0708F4A2CE98CF48175907BE
:102D30006A077B0768F684169506A606B70640F66E
:102D4000D12CC12CC601880F991FFC01EF55FD4FF6
:102D500020813181232B09F4C5CE80819181019797
:102D600091838083BFEFCB1ADB0AE4E0CE16D10457
:102D700049F72FB7F8948091B2029091B302A091D5
:102D8000B402B091B5022FBF80939D0290939E0232
:102D9000A0939F02B093A00260E087E00E94CD0361
:102DA00097CF0F931F93CF93DF938230910510F449
:102DB00082E090E0E0919A05F0919B0530E020E000
:102DC000B0E0A0E0309799F42115310509F44AC02C
:102DD000281B390B24303105D8F58A819B81611578
:102DE000710589F1FB0193838283FE0111C040814B
:102DF00051810281138148175907E0F0481759079C
:102E000099F4109761F012960C93129713961C93F5
:102E10003296CF01DF91CF911F910F9108950093CA
:102E20009A0510939B05F4CF2115310551F04217F7
:102E3000530738F0A901DB019A01BD01DF01F80158
:102E4000C1CFEF01F9CF90939B0580939A05CDCF29
:102E5000FE01E20FF31F81939193225031093983D0
:102E60002883D7CF2091980530919905232B41F4E1
:102E700020910E0130910F01309399052093980510
:102E800020910C0130910D012115310541F42DB730
:102E90003EB74091100150911101241B350BE09178
:102EA0009805F0919905E217F307A0F42E1B3F0B4C
:102EB0002817390778F0AC014E5F5F4F24173507AC
:102EC00048F04E0F5F1F50939905409398058193EA
:102ED00091939FCFF0E0E0E09CCFCF93DF930097FA
:102EE000E9F0FC01329713821282A0919A05B09109
:102EF0009B05ED0130E020E01097A1F420813181A5
:102F0000820F931F20919805309199052817390752
:102F100009F061C0F0939905E0939805DF91CF9196
:102F20000895EA01CE17DF07E8F54A815B819E012B
:102F300041155105B1F7E901FB83EA8349915991A4
:102F4000C40FD51FEC17FD0761F4808191810296B3
:102F5000840F951FE90199838883828193819B83E4
:102F60008A83F0E0E0E012968D919C911397009790
:102F7000B9F52D913C911197CD010296820F931FC7
:102F800020919805309199052817390739F630971F
:102F900051F510929B0510929A05B0939905A09354
:102FA0009805BCCFD383C28340815181840F951F84
:102FB000C817D90761F44E5F5F4F88819981480F28
:102FC000591F518340838A819B819383828321157A
:102FD000310509F0B0CFF0939B05E0939A059ECFA1
:102FE000FD01DC01C0CF13821282D7CFFC018827FC
:102FF0009927E89421912032E9F3293010F02E30FE
:10300000C8F32B3241F02D3239F4689404C00E9489
:103010004018820F911D219120532A30C0F31EF4D5
:10302000909581959F4F089546E955E00E941918A3
:103030000895FA01A191B081009719F41097E1F079
:10304000CD01DC01CD010D90002011F4C00113C0B1
:10305000FB012191222319F02015D9F7F3CFFB01B1
:103060002191201519F41E92119606C02223C1F752
:103070000D900020A1F7D001FA01A193B08308952B
:103080007AE0979F902D879F802D910D11240895B0
:10309000F999FECF92BD81BDF89A992780B5089520
:1030A000262FF999FECF1FBA92BD81BD20BD0FB664
:1030B000F894FA9AF99A0FBE01960895A1E21A2E91
:1030C000AA1BBB1BFD010DC0AA1FBB1FEE1FFF1FCC
:1030D000A217B307E407F50720F0A21BB30BE40B1C
:1030E000F50B661F771F881F991F1A9469F7609563
:1030F0007095809590959B01AC01BD01CF0108951D
:10310000EE0FFF1F0590F491E02D0994DC0101C042
:103110006D9341505040E0F70895FB01DC018D9123
:10312000019080190110D9F3990B0895FB01DC017E
:0E31300001900D920020E1F70895F894FFCF72
:10313E00FFFFFFFF00E100000000000000009C0503
:10314E00800000C180810000000A00090005000611
:10315E000000000000C60541050206F705480606F8
:10316E00062406000000002A080D0A004C6F616458
:10317E00696E6720454550524F4D20646174610061
:10318E0052656C61793A003B00536176696E672037
:10319E00454550524F4D20646174610020666F7238
:1031AE002063757272656E742072656C61793A2057
:1031BE000072656C61790068656C7000736176658C
:1031CE00006C6F6164007072696E740073657400D8
:1031DE0064656C00636C656172006B696C6C006D8C
:1031EE00696E00456E746572696E67206C656172FA
:1031FE006E696E67206D6F6465202620636C656155
:10320E00722073657474696E67730053746172749F
:10321E0020416464726573733A20005B005D004563
:10322E006E746572696E67206C6561726E696E6729
:10323E00206D6F6465004C656176696E67206C6504
:10324E0061726E696E67206D6F64652C2073617696
:10325E00696E67206461746120746F204545505219
:0E326E004F4D0052656C61792044656D6F0014
:00000001FF
